:020000040800F2
:1000000000040020218100082381000823810008CA
:100010002381000823810008238100082381000830
:1000200023810008238100082381000849CA0008B1
:100030002381000823810008238100082381000810
:100040002381000823810008238100082381000800
:1000500023810008238100082381000823810008F0
:1000600023810008238100082381000855D400085B
:100070007DD40008A9D40008D5D4000801D5000813
:1000800029D5000855D500082381000823810008E0
:1000900023810008238100082381000823810008B0
:1000A00023810008238100082381000823810008A0
:1000B000B9E80008238100082381000881D90008DD
:1000C00091DA0008238100082381000823810008B9
:1000D0002381000823810008238100082381000870
:1000E0002381000823810008238100082381000860
:1000F00023810008238100082381000881D500089E
:10010000238100082381000823810008238100083F
:10011000238100082381000823810008238100082F
:10012000ADD50008D5D5000801D600082DD60008A9
:1001300059D6000823810008238100082381000884
:1001400023810008238100082381000835E5000889
:1001500081D60008ADD60008D9D600082381000852
:1001600023810008238100082381000823810008DF
:1001700023810008238100082381000823810008CF
:1001800023810008238100082381000823810008BF
:1001900023810008238100082381000823810008AF
:1001A000238100082381000823810008238100089F
:1001B000238100082381000823810008238100088F
:1001C000238100082381000823810008238100087F
:1001D000238100082381000823810008238100086F
:1080000072B6394880F30888384880F309883848C0
:108010004EF60851CEF20001086040F20000CCF2AA
:1080200000004EF63471CEF200010860BFF34F8FAE
:10803000BFF36F8F40F20000C0F2F0004EF688519F
:10804000CEF200010860BFF34F8FBFF36F8F4FF088
:108050000000E1EE100A4EF63C71CEF2000108601D
:10806000062080F31488BFF36F8F04F097FA04F0B2
:10807000F6F94FF055301F491B4A91423CBF41F879
:10808000040BFAE71C49194A91423CBF41F8040B22
:10809000FAE71A491A4A1B4B9A423EBF51F8040BA1
:1080A00042F8040BF8E700201749184A91423CBFF8
:1080B00041F8040BFAE704F075FA04F070FA144C76
:1080C000144DAC4203DA54F8041B8847F9E702F078
:1080D000C1F8114C114DAC4203DA54F8041B884727
:1080E000F9E704F05DBA000000040020000C002055
:1080F000000000080000002000040020E4F1000857
:10810000000C0020440C0020480C0020BC10002073
:10811000008000080080000800800008008000083F
:108120006EE700F000F8FEE72DE9F04F2DED108A24
:10813000C1F80CD0C3689D46BDEC108ABDE8F08F35
:10814000002383F311882846A047002004F04EFC4A
:10815000FEE704F006FC00DFFEE7000053B94AB971
:10816000002908BF00281CBF4FF0FF314FF0FF303F
:1081700000F074B9ADF1080C6DE904CE00F006F81A
:10818000DDF804E0DDE9022304B070472DE9F04793
:10819000089E04468846002B40F085808A4215469A
:1081A00048D9B2FA82F24AB1C2F1200701FA02F3C9
:1081B00020FA07F7954047EA030894404FEA154E26
:1081C000230CB8FBFEF71FFA85FC0EFB178843EA69
:1081D000084307FB0CF1994209D9EB1807F1FF306E
:1081E00080F0E380994240F2E080023F2B445B1A2A
:1081F000A4B2B3FBFEF00EFB103344EA034400FBD1
:108200000CFCA44509D92C1900F1FF3380F0CB8078
:10821000A44540F2C88002382C4440EA0740A4EB51
:108220000C0400271EB1D4400023C6E900433946A0
:10823000BDE8F087002A53D0B2FA82F2002A40F05B
:10824000B680491B4FEA154E1FFA85F80127B1FB8E
:10825000FEFC230C0EFB1C1143EA014308FB0CF14E
:10826000994207D9EB180CF1FF3002D2994200F283
:10827000EC808446591AA3B2B1FBFEF00EFB101439
:1082800043EA044408FB00F8A04507D92C1900F183
:10829000FF3302D2A04500F2DC801846A4EB0804AC
:1082A00040EA0C40BEE78B4208D9002E78D0002768
:1082B000C6E9000138463946BDE8F087B3FA83F7CE
:1082C0007FB98B4202D3824200F2BD80841A61EBF7
:1082D000030301209846002EA9D0C6E90048A6E76E
:1082E000FFDEC7F12005BB4022FA05FC4CEA030C77
:1082F00001FA07F420FA05F821FA05F34FEA1C4EBB
:1083000048EA0404B3FBFEF9210C0EFB19331FFAF3
:108310008CF841EA034309FB08FA9A4502FA07F28E
:1083200000FA07F10BD91CEB030309F1FF3080F0D1
:1083300088809A4540F28580A9F102096344A3EB45
:108340000A03A4B2B3FBFEF00EFB103344EA03446D
:1083500000FB08F8A04508D91CEB040400F1FF332A
:108360006BD2A04569D90238644440EA0940A4EBC5
:108370000804A0FB02894C45C6464B4654D351D055
:10838000002E69D0B1EB0E0264EB030404FA05F58C
:1083900022FA07F3FC401D43C6E90054002746E7D4
:1083A0003746304643E7184637E707461FE7C2F12E
:1083B000200320FA03F7954001FA02F021FA03F3B3
:1083C0004FEA154E3843010CB3FBFEF71FFA85F850
:1083D0000EFB173341EA034107FB08F38B4204FA13
:1083E00002F407D9691807F1FF3C28D28B4226D93D
:1083F000023F2944CB1A81B2B3FBFEF00EFB1033CF
:1084000041EA034100FB08F38B4207D9691800F1E8
:10841000FF3C10D28B420ED902382944C91A40EAD7
:10842000074714E74145ABD2B8EB020E69EB0C02EB
:1084300001381346A4E76046F0E7184695E767461B
:10844000D8E781467BE7384645E7ACF1020C2B4480
:1084500010E702382C4421E73746E8E6704700BFB2
:1084600001F0FF01102A2BDB10F0070F08D010F8E5
:10847000013B013A8B422DD010F0070F42B3F6D1E9
:10848000F0B441EA012141EA014122F007047FF002
:1084900000070023F0E80256083C85EA010586EA59
:1084A000010685FA47F5A3FA87F586FA47F6A5FA95
:1084B00087F68EB9EED1F0BC01F0FF0102F00702A1
:1084C00032B110F8013B013A83EA010313B1F8D14C
:1084D0000020704701387047002D06BF354603382D
:1084E000073815F0010F07D1013015F4807F02BF66
:1084F000013015F4C03F0130F0BC0138704700BFB7
:1085000020224FF40071014805F077B900040240C1
:1085100070B506460D4603F0E7F9044628B126B9C2
:108520002DB1A92000F078FA2C46204670BDAA2073
:1085300000F072FAF9E7A0F5BB40263810B5042820
:1085400041D8DFE800F003141F2A35008C78E620BC
:108550003CB100F071F9142000F06EF900242046BF
:1085600010BD00F0EBF9142000F0E8F9F7E78C7883
:10857000E6201CB100F060F91C20EDE700F0DEF908
:108580001C20F1E78C78E6201CB100F055F913208F
:10859000E2E700F0D3F91320E6E78C78E6201CB17F
:1085A00000F04AF91620D7E700F0C8F91620DBE7FB
:1085B0008C78E6201CB100F03FF92220CCE700F0D7
:1085C000BDF92220D0E70124C9E70120704708B592
:1085D000FFF7B1FF08BD704708B5FFF7FCFF08BD06
:1085E00013B502AB03E903000F4B1B78B3B99DF839
:1085F0000230009873B16AB100F06AFD044601468A
:10860000009800F01DFD0099204602B0BDE8104022
:1086100001F0B8BB00F03AFD0446F4E7009800F022
:1086200057FD0099F1E700BF480C0020034610B445
:1086300000885C880A4640EA044099885DF8044B4B
:10864000FFF7CEBF0120704710B500210446FFF7A9
:10865000EDFF2146FFF7C0FF10BD08B501F0AEFCED
:1086600000F09EF8BDE8084001F0C9BC01F0CCBCA8
:10867000704708B500F018FCFFF7FAFF46F2A810A3
:1086800004F0B9F9BDE8084003F024BC38B5012175
:108690000546FFF7CBFF29460446FFF798FF08B9C8
:1086A000002038BD2946204603F006FA0028F7D0FE
:1086B0002946204602F0F4FF0028F1D02946204642
:1086C00003F078F90028EBD02946204602F0AAFEF4
:1086D0000028E5D0AB785BB145F65B539C421CD0DB
:1086E0000AD8B4F5B84F12D045F6DF439C4211D0FA
:1086F0002846FFF76AFFD4E745F65C539C420FD04B
:1087000045F65D539C42F3D101F018F9F0E7FFF70D
:10871000B0FFC5E701F0B0F9C2E701F01BF9E7E7E8
:1087200001F01BF9E4E7704708B5FFF7FCFF08BD4F
:1087300008B5FFF7F9FF002000F04AF8BDE808404F
:1087400002F0E6BC704708B5FFF7FCFF08BD08B5AE
:1087500003F098FA00F03CF802F0BAFDFFF7F3FFDF
:1087600008BD704708B5FFF7FCFF08BD0120704742
:1087700010B50446FFF7FAFF78B1084BE2B212F0E9
:10878000010F4FF4807114BF1983598312F0020F47
:108790004FF4007214BF1A835A8310BD00040240C4
:1087A00010B50A4C01224FF48071204605F025F8DF
:1087B0004FF48073638301224FF40071204605F06B
:1087C0001CF84FF40073638310BD00BF0004024027
:1087D00010B50446FFF7C6FF2046FFF7C9FF10BDDE
:1087E00010B586B06C4684E803009DF802300BB1EA
:1087F00000F0EAFF0023ADF8163094E80300ADF86E
:10880000141089B20490ADF80C0004AC29B994E8B6
:10881000030000F00BFF06B010BDBDF80C204FF6B2
:10882000FF739A42F3D02046FFF70CFF0028EED1E9
:10883000F1E7008800F06EBC10B50446002876D041
:10884000822813D103F01EFA810770D4392000F07A
:108850005FFF00F0EFFF42F2107004F0CCF8392017
:1088600000F05EFFBDE8104000F0E4BF83280ED1A9
:1088700003F008FAC2075AD4532000F049FF00F071
:10888000D9FF42F2107004F0B6F85320E8E78428CC
:108890000ED103F0F7F9430749D4472000F038FF21
:1088A00000F0C8FF42F2107004F0A5F84720D7E7A7
:1088B000031FDBB2A02B0ED81D4B0146186803F036
:1088C00029FA20B1204600F02BFF00F0B3FF20462C
:1088D00000F01EFFC6E700F12003DBB2072B07D82C
:1088E00000F007040120A040C0B200F047FFB9E744
:1088F00000F15B03DBB2022B05D80E4ABDE8104045
:10890000D05C03F0D9B900F15803DBB2162B06D8BE
:10891000094ABDE8104032F8130003F0DDB9EC2835
:1089200005D901F015FDBDE8104001F0E5BD10BD11
:10893000040C0020D4EA0008D8EA000808B5002892
:1089400058D082280FD103F09DF9810752D53920E4
:1089500000F0DEFE00F06EFF392000F0E1FEBDE821
:10896000084000F067BF83280AD103F08BF9C207E3
:1089700040D5532000F0CCFE00F05CFF5320ECE724
:1089800084280AD103F07EF9430733D5472000F04D
:10899000BFFE00F04FFF4720DFE7021FD2B2A02A40
:1089A000DBD900F12002D2B2072A07D800F0070372
:1089B00001209840C0B200F0E9FED0E700F15B0270
:1089C000D2B2022A04D80020BDE8084003F074B9EE
:1089D00000F15802D2B2162A04D80020BDE808409F
:1089E00003F07AB9EC2805D901F010FDBDE8084084
:1089F00001F082BD08BD38B505460C46FFF71CFFE7
:108A000024B92846BDE83840FFF798BF6420013CF0
:108A100003F0F1FFA4B2F3E739280CBF50210A217B
:108A2000FFF7E9BF08B528B100F0A8FEBDE808408F
:108A300000F000BF08BD08B528B100F0A7FEBDE8F2
:108A4000084000F0F7BE08BD2DE9F047877985782A
:108A500081460C4600F082FE3F098046C8B1A84618
:108A6000BDB1C4F3072303F0F003402B04D004F19D
:108A70002003DBB2072B1ED9B04B5B785E071AD4FC
:108A8000022000F027FF00F069FE80F001005FFA8D
:108A900080F8C4F303330B2B3FD8DFE813F00F004B
:108AA0000F0060006000C700DD003E003E00E700F0
:108AB0003E01510151014FF00008EAE7C4F30723DA
:108AC000C4F3032613F0F00F18BF3601E7B295B1D7
:108AD00056B107F12003DBB2072B304600D93FB96E
:108AE00000F04CFE00F0A6FE3846FFF7A5FE14E0AD
:108AF00000F05AFEF6E73846FFF720FF6EB107F1A7
:108B00002003DBB2072B304600D917B900F03EFE38
:108B100001E000F051FE00F08DFEC4F30334083C88
:108B2000032C03D803F0AEF8FFF752FEB8F1000FA4
:108B300000F05E8100F00AFE10F0010040F0588164
:108B400089F8020000F0FAFD00F040FA484600F013
:108B500065F900F0F3FDBDE8F04700F041BAC4F359
:108B6000072303F0F003C4F30326202B5FFA84FAF3
:108B700018BF3601BAF1000F0FD0BAF1010F3CD087
:108B8000002D44D0002F3BD099F80630D9073CD5B2
:108B90006FF3071389F8063032E0684B5B785807AB
:108BA0000FD53DB126B1304600F0E8FD00F042FEA1
:108BB00000209AE72846FFF7C1FE002EADD03046D0
:108BC000A4E785B137B900F00BFE3043C0B2FFF720
:108BD00029FFA2E7012FF6D100F002FE3043C0B218
:108BE00000F00AFE99E72FB900F018FE3046FFF7B3
:108BF00022FF92E7012F90D0F6E71DB1052F8CD808
:108C00003046E4E7042F88D8F0E750466DE7002FA0
:108C1000ECD0BAF1390F0CBF4FF4FA504FF47A7020
:108C200003F0E9FE5046FFF789FE76E7C4F381239F
:108C300043B1012B7FF471AF65B1C4F3090003F0B8
:108C40004BF86AE725B1C4F3090003F035F864E78F
:108C50002846FAE72846F2E7E0B225B101F078FBB2
:108C600001F04AFC59E701F0D1FBF9E714F4407F29
:108C700025D1002D7FF451AFE206C4F3421048BF66
:108C80000F254FEA800048BF854004F00F03C4F36E
:108C9000812248BFED438340022A45EA030008D001
:108CA0000AD8012A02D000F067F936E700F05CF933
:108CB00033E700F069F930E700F053F92DE7C4F32A
:108CC0000122D3B2F5B102F00103002B3FF425AF2E
:108CD000C4F34210830004F00F0000FA03F214F012
:108CE00010001CBF0F209840C4F3812318BFC0435D
:108CF000022B40EA02000AD00CD8012B04D000F06D
:108D00008DF90AE75B08E0E700F080F905E700F07D
:108D10008DF902E700F046F9FFE6E7B2C4F3032657
:108D200025B1304600F052F9384650E73846FFF793
:108D300082FE304600F054F9EFE600BF380E002006
:108D4000E6B2A6F1F003042B3DD8DFE803F00322DE
:108D50000E151E003DB1042F3FF6DFAEC4F3042014
:108D600000F04AF9D9E6052FF6E7C4F30420002DF8
:108D7000E0D100F02BF9D0E625B1C4F3042000F0D7
:108D800020F9CAE600F01AF9C7E61A4B5B785B07D0
:108D900004D5C4F30420002DCCD0EAE74DB1C4F3D0
:108DA0000425284600F012F90321284600F06EFD44
:108DB000B3E6012000F08EFD012F7FF6AEAE02205B
:108DC00000F088FDA9E62DB10FB130468DE6C4F361
:108DD0000420CEE74FB1392E0CBF4FF4FA504FF4B8
:108DE0007A7003F008FE30461DE7C4F30420A1E7C3
:108DF000BDE8F087380E002038B501880446807839
:108E000000F094F9054600F019F900F0A9F8294698
:108E10002046BDE83840FFF717BE000037B585880B
:108E200004460146022201A805F0B2FDF5B1BDF8E5
:108E300004204FF6FF739A4218D02046FFF726FC15
:108E400070B900F08BFC88B1A3787BB1084B5B78DC
:108E50005B070BD4022003B0BDE8304000F03ABD00
:108E60002046FFF7C9FF2046FFF7EEFB03B030BDF9
:108E7000380E002008B5002002F01EFF002002F08E
:108E80002BFF00F0A1FC00F0A5FC00F0D3FC01F0EA
:108E900011FCBDE8084001F02FBB08B500F048FC0C
:108EA000BDE80840FFF7E6BF08B500F077FCBDE875
:108EB0000840FFF7F2BFC0F303330E3303F00F0295
:108EC0000D2A10B522D8012101FA02F313F4105F24
:108ED000C4B218D140F20332134203D113F0100090
:108EE0000DD110BDF02C13D004D8E72C8CBF00207E
:108EF0000120F6E7F42C14BF00200120F1E7E72C55
:108F000006D9F12CF7E7C0F3C020EAE70020E8E734
:108F10000846E6E708B5008800F0FCF8BDE8084020
:108F2000FFF7C9BF82B002AB03E9030002B070478C
:108F300082B002AB03E9030002B07047704708B586
:108F4000FFF7FCFF08BD000008B5FFF7F8FF034B73
:108F50001860BDE80840FFF78DBF00BF4C0C002033
:108F60007047FFF7F1BF0000024B1B681843FFF783
:108F7000EBBF00BF4C0C0020024B1B681840FFF7F2
:108F8000E3BF00BF4C0C0020024B1B685840FFF7AA
:108F9000DBBF00BF4C0C0020704708B5FFF7FCFF9B
:108FA00008BD000008B5FFF7F8FF034B1860BDE8E7
:108FB0000840FFF75FBF00BF500C00200020FFF704
:108FC000F1BF012303FA00F0FFF7ECBF012303FA1E
:108FD00000F0024B1B681843FFF7E4BF500C002061
:108FE000012303FA00F0034B1B6823EA0000FFF79C
:108FF000D9BF00BF500C0020012303FA00F0024B40
:109000001B685840FFF7CEBF500C0020024B1B6876
:109010001843FFF7C7BF00BF500C0020024B1B686E
:109020001840FFF7BFBF00BF500C0020024B1B6869
:109030005840FFF7B7BF00BF500C0020704700003A
:10904000C0F3072303EB830337B500EB430000F0C5
:10905000FF0000F0070301229A40C0080A4B00EB12
:109060008000D2B218440024057821FA04F343F3B7
:1090700000036B40134001346B40052C00F8013BAA
:10908000F2D103B030BD00BF540C0020C0F3072361
:1090900003EB830313B500EB430000F0FF0000F087
:1090A00007040A49C00800EB800000220144104672
:1090B00011F8013BE34003F00103934001321843F0
:1090C000052AC0B2F4D102B010BD00BF540C00207C
:1090D0000E4B73B51E680E4BADF804001B681F24C1
:1090E0001E4326FA04F3DB07E5B206D414F1FF347D
:1090F000F7D20025284602B070BD0199284600F03D
:1091000053FE80B20128F1D0F4E700BF500C0020DC
:109110004C0C002007B5ADF804000198FFF7D8FF0C
:10912000019903B05DF804EB00F03EBE13B5104B9F
:10913000ADF804101B782BB1019802B0BDE81040C7
:10914000FFF7E8BF70B10198FFF7C2FF0446014680
:109150000198FFF775FF0199204602B0BDE8104065
:1091600000F022BE0198FFF791FF0446F3E700BF2D
:10917000480C0020F8B50C4B0C4E1C780C4D337885
:10918000A34200D1F8BD05EBC40335F834005F8875
:109190009A88D98840EA074042EA01410134FFF742
:1091A000C7FE04F00704EAE7CB0C0020CA0C00203D
:1091B0008A0C0020064B10B418885C889A88D988DD
:1091C00040EA044042EA01415DF8044BFFF7B0BEBB
:1091D000820C0020254B9A7912F0F00F2DE9F34113
:1091E0000CD19A7852B1224A224F1278224CDFF8E1
:1091F0008CE04FF6FF7C3978914202D102B0BDE895
:10920000F0819D886DB318785E788DF804008DF834
:109210000560BDF80410614523D004EBC20191F84C
:109220000180B0451DD114F83260864219D188788A
:10923000B8B98888401BBEF8005080B2854210D96A
:109240009879012262F3071098718B79074862F3CD
:1092500007138B71FFF7E2FD02B0BDE8F041FFF7A5
:1092600089BF013202F00702C5E700BF820C00206F
:10927000CB0C0020CA0C00208A0C0020000C00201F
:109280002DE9F04FBF4E91B00446014606220AA8D0
:1092900005F07EFBB388328820786178A778B4F82F
:1092A0000490ADF80C2096F800E096F801C0B046A6
:1092B000002B00F0FB8092B24FF6FF7B5A4500F086
:1092C000F580B578002D00F0F180B279019202F0BE
:1092D000F00AAD4AA9EB030312889BB29A4240F20E
:1092E0009A80BAF1000F56D18DF810E08DF811C0B8
:1092F000BDF810305B45BA4619D0B6F800C02388D7
:109300009C4514D1002F40F056819DF80420012384
:1093100063F30712B271FFF74DFF3046FFF77EFD92
:10932000B379A3710025284611B0BDE8F08FB9F1DB
:10933000000F40F04481002FF4D098F8063043F03D
:10934000010388F80630EDE702EBC30696F801C08A
:109350008C4506D112F833C0844502D1B678002E70
:10936000E0D1013303F007033CE110F4706F00D04B
:109370007BB12033DBB2072B0BD92046FFF74EFD24
:10938000AA4606E010F4706FF3D0A27912F0F00F45
:10939000EFD15546C7E78DF814E08DF815C0BDF83C
:1093A00014305B4511D03188238899420DD167B9BB
:1093B000019BA3712046FFF731FD0822214630466C
:1093C00005F0E6FAFFF7F6FEADE72046FFF7A2FD4F
:1093D000E8B1E7B198F806301F2B0DD9B8F8002096
:1093E000ADF8302000228DF83220ADF834908DF8A1
:1093F00036300CA8FFF712FD08222146614805F01F
:10940000C7FAFFF7E7FEFFF7D5FE01258BE72046F9
:10941000FFF704FDF9E7BAF1000F17D10AAB8DF899
:109420002A70ADF82C908DF828008DF8291093E85B
:109430000300FFF777FD3046FFF7F0FC08225146A6
:10944000304605F0B3FAFFF7B5FEA2E78DF818E055
:109450008DF819C0BDF818305B450FD031882388CE
:1094600099420BD157B9019BA3712046FFF7D6FC57
:1094700008223946304605F099FA54E72046FFF7AE
:1094800049FD0028C3D0002FC1D098F806301F2B0B
:10949000B2D9B8F80020ADF8382000228DF83A2073
:1094A000ADF83C908DF83E300EA8A3E7002B6DD0B0
:1094B0008DF81CE08DF81DC0BDF81C504FF6FF72F2
:1094C000954263D098F80250002D5FD12E4EA9EB43
:1094D000030336889BB29E4240D93D46002F96D06A
:1094E0008DF820E08DF821C0BDF82030934225D0C2
:1094F000B8F8002023889A4220D198F80630DA077D
:1095000016D413F0F00F13D003F0F002F02A1CBFB2
:10951000C3F303120132A37118BF62F3071320468D
:1095200018BFA371FFF77AFC08222146154847E7C8
:1095300008222146134805F02BFAF4E62046FFF7EF
:10954000E9FC00287FF458AF98F80630204643F035
:10955000010388F80630FFF761FCE4E68DF82A7015
:10956000ADF82C908DF828008DF829100AAB93E8FF
:109570000300FFF7D7FC08222946024805F016FA37
:1095800020E700BF820C0020000C0020002F3FF4D9
:109590003EAF2046FFF7BEFC054600283FF437AF3C
:1095A000082221461D4805F0F3F91C48FFF741F950
:1095B000FFF710FE06E7B9F1000F3FF4BEAE8DF8DD
:1095C00024008DF82510BDF824204FF6FF739A4231
:1095D0003FF4B1AE002F7FF4B0AE114A114B1778B3
:1095E0001B78114ABB427FF4AFAE8DF828008DF88E
:1095F00029100A98FFF78EFDC0F30332C3B2032A85
:109600003FF6BBAE01A151F822F000BF6B930008FA
:109610006B9300088593000885930008820C002056
:10962000CA0C0020CB0C00208A0C0020F0B587B0BB
:109630006C4684E803002046FFF722FE304E314D91
:10964000074688B1BDF80430BDF80020ADF8102001
:1096500043B192B24FF6FF739A4203D094E80300ED
:10966000FFF766FC284C45E094E8030004AB83E870
:109670000300BDF80420BDF81010ADF80C10002A4E
:10968000F0D089B24FF6FF729142EBD030782A7851
:10969000441C04F0070494420AD019461A4B0822CD
:1096A00003EBC00005F074F93470FFF763FDD9E7F0
:1096B000FFF7FAFB08223946144837702F7005F07F
:1096C00075F9CFE704EBC000FFF7DAFDB0B12B78F6
:1096D00034F8330004EBC3035F889A88D98840EAE2
:1096E000074042EA0141FFF723FC2B78013303F0E6
:1096F00007032B70287833788342E3D107B0F0BD9D
:10970000CA0C0020CB0C00208A0C0020820C002008
:10971000024B0146186802F030BB00BF040C002069
:10972000024B0146186802F02ABB00BF040C00205F
:10973000014B186802F025BB040C0020024B93F982
:109740000000C0F3C7007047D50C0020024B18780A
:1097500000F00700704700BFD50C0020034B1878BD
:1097600010F0070018BF0120704700BFD50C002083
:10977000014B1878704700BFD70C0020024A1378BD
:1097800018431070704700BFD70C0020024A1378AE
:1097900023EA000010707047D70C0020014B002214
:1097A0001A707047D70C0020024A137818431070C3
:1097B000704700BFD80C0020024A137823EA00004B
:1097C00010707047D80C0020014B00221A707047AF
:1097D000D80C0020014B00221A707047D40C0020D6
:1097E000014B1878704700BFD60C0020704708B5B1
:1097F000FFF7FCFF08BD000008B5064B5B785B0770
:1098000006D4054B1978814202D01870FFF7EFFF9C
:1098100008BD00BF380E0020D60C002008B5044B50
:109820001A781AB100201870FFF7E1FF08BD00BFD9
:10983000D60C002010B50D4B0D491B7809780D4C46
:109840000B430D49206809780B430C4903700978D4
:1098500031B10B43037002F04FFA08B1FFF7DEFF9E
:109860002068BDE8104002F015BA00BFD70C0020F8
:10987000D80C0020040C0020D40C0020D60C0020B2
:10988000704708B5FFF7FCFF08BD00000A4A527890
:10989000520710B50CD4094C41EAC0012170FFF702
:1098A00095FB94F90000C0F3C700FFF7EAFF10BD75
:1098B000BDE81040FFF78ABB380E0020D50C002011
:1098C00008B5034B00201870FFF7DBFF08BD00BF91
:1098D000D50C002008B50C4A92F9003023EA0000AC
:1098E00040B2107042070ED1DBB283420BD0074B5F
:1098F0005B785B0707D4C0F3C700FFF771FBBDE8D7
:109900000840FFF7DDBF08BDD50C0020380E002051
:10991000094A08B55378C3F3800181420AD060F345
:1099200082035370108800F041F80220BDE808401F
:10993000FFF7D0BF08BD00BF380E0020044B587899
:10994000C0F3800080F0010000F00100FFF7E0BFED
:10995000380E00200120FFF7DBBF0020FFF7D8BF43
:1099600008B500F078FF4FF6FF710020BDE8084011
:1099700000F012BF08B5002000F0C1FE4FF6E96309
:10998000C31A5842584108BD022000F0A9BE032066
:1099900000F0A6BE10B5042000F0A2FE044622206E
:1099A00000F09EFE44EA002080B210BD10B5C1B2A6
:1099B0000446042000F0E2FE210A2220BDE8104007
:1099C00000F0DCBE01460F2000F0F4BE014613207B
:1099D00000F0F0BE0020FFF7F9BF08B50020FFF748
:1099E000F1FFFFF7F7FF08BD10B500F034FF4FF6A9
:1099F000E961002000F0D0FE0021022000F0BEFE50
:109A000000210320002400F0B9FE1A4B2146042057
:109A10001C6000F0B3FE2146222000F0AFFE21467C
:109A2000052000F0ABFE2146062000F0A7FEFF2136
:109A3000072000F0A3FE2146082000F0BBFE2146CF
:109A40000D2000F09BFE2146182000F0B3FE2146B9
:109A5000172000F093FE21461C2000F0ABFE2146AB
:109A6000202000F099FE2146182000F0A3FEFFF709
:109A7000B4FF10BD4C0C0020FFF7B6BF01460E200E
:109A800000F07CBE08B502F0F3F9024B1860024BFF
:109A9000186008BDE00C0020E40C002008B502F0BE
:109AA000E7F9024B1860024B186008BDE00C00207B
:109AB000DC0C00207047704708B5FFF7FCFF08BDBD
:109AC000704708B5FFF7FCFF08BD000008B5054862
:109AD00000F052FA00F07CFEFFF7ECFFFFF7ECFF1E
:109AE00008BD00BF719F00080120704708B5FFF74F
:109AF000FBFF08BD7047704708B5FFF7FBFFFFF796
:109B0000FAFF08BD08B502F0B1F900F023FB01F03F
:109B1000A9FB01F0EBFEFFF7D4FF08BD2DE9F04FE4
:109B200085B000F031FB08B1FFF7ACFFDFF8E4A02F
:109B3000002557465FFA85F8404600F069FA3AF882
:109B4000026B8642834647D0304B1B789B0701D57A
:109B500000F064FA0023012486EA0B0634425FFA1F
:109B600083F934D0FFF7C2FFA8B11BEA040F14BF7A
:109B7000012300238DF802308DF800908DF80180CC
:109B800002F096F940F00100ADF804006B4693E84E
:109B90000300FEF725FE37F815305C4027F8154026
:109BA00001F0A8FB01F0BEFE08B1FFF777FF184CEB
:109BB00000F0BEFC02F066F82378834222D002F067
:109BC00061F8207005B0BDE8F04FFEF701BE01332B
:109BD00064000A2BA4B2C1D10135072DAAD14FF6DA
:109BE000FF73ADF8083000238DF80A3002F060F9F9
:109BF00040F00100ADF80C0004AB13E90300FEF7E0
:109C0000EFFDCDE705B0BDE8F08F00BFF80C0020F8
:109C1000E80C0020EA0C002010B500F0D1F8B0F5F7
:109C2000A24F04462BD2B0F5A04F71D2E72812D82C
:109C3000E0280AD2A7280AD8A5285AD2012804D099
:109C400003B233B1032898BF0024204610BDBE28BC
:109C500056D90024F9E7B0F5005F08D2B0F5807F4F
:109C600003D2ED28F5D340F4A044A4B2EDE7B0F55B
:109C7000804FEED3C0F30B0444F42044E5E7B0F585
:109C8000AA4F11D2B0F5A84FC3B261D2B0F5A64F1A
:109C900054D2B0F5A44F4CD39A08012403F0030327
:109CA0009C4044EA421441E0B0F5B24F0ED2B0F508
:109CB000B04F52D2B0F5AC4FCBD2C0B200F002F9E7
:109CC000040204F4F85444F40054BEE7B0F5B44F71
:109CD00048D3A0F5C0439BB2B3F5005FB9D2C0F33F
:109CE000042000F0EFF8000200F4F850E4B204435E
:109CF000E9E75B34E4B2214B1C5D44F48044A4E703
:109D00005834E4B21E4B33F8144044F488449CE7C2
:109D1000C2B2C2F381035B01C0F3011443EA04241D
:109D200002F00302012303FA02F2144344F40C4448
:109D30009BE74AF2F10040EA032486E79A080124EF
:109D400003F003039C4044EA421444F40A448CE7C1
:109D50004AF2F40444EA032477E74AF2F00040EAC6
:109D6000042482E700F00F0000F0ACF8C4F3031401
:109D700040EA042444F4104477E700BF06EB0008EF
:109D80000AEB000846225043C1F307230A2202FBD4
:109D9000030353FA81F3034A32F8130082B002B08E
:109DA000704700BFBCE9000807B5ADF80410019981
:109DB000FFF7E8FF03B05DF804EBFFF72DBF0000ED
:109DC000822825D00CD8312863D004D8292859D02E
:109DD0002A2865D0704735284DD0392818D07047CB
:109DE000E32830D004D8E02819D0E22826D07047E4
:109DF000E62832D0E72835D0E42832D1304B5A78E3
:109E000091072ED51B7813F0100F08BFE72012E042
:109E10002B4B1B7813F0030F18BFE0207047284A24
:109E20001378D90743D4527812F0010F19D013F0E8
:109E3000100F08BFE32018BF00207047204B1B788D
:109E400013F0040FF2E71E4A1378590731D4527801
:109E5000D20730D413F0100FEDE7194B1B781A0717
:109E6000D1D47047164A1378190726D4527892072E
:109E7000F0D5E420F5E7124B1B7813F0200F18BF44
:109E8000292070470E4B1B7813F0200F18BF352088
:109E900070470B4B1B7813F0400F18BF2A207047F8
:109EA000074B1B7813F0400F18BF31207047392043
:109EB0007047E2207047E0207047E620704700BFFF
:109EC000380E0020294B1A78510707D500F01801E9
:109ED000082927D100F0F70040F00400110707D54A
:109EE00000F01801182926D100F0E70040F0140016
:109EF0005B78D90707D500F01801082924D100F0B4
:109F0000F70040F00100990707D500F01803182B5F
:109F100023D100F0E70040F01100D30648BF00F065
:109F2000E700704700F01401042904BF00F0FB00B3
:109F300040F00800D2E700F01401142904BF00F03B
:109F4000EB0040F01800D3E700F01101012904BF35
:109F500000F0FE0040F00800D5E700F01103112BDF
:109F600004BF00F0EE0040F01800D6E7380E0020E5
:109F70000020704700207047014B1860704700BFF9
:109F8000080C0020FFF7ECBC08B500F0FDF84FF41A
:109F90007A7002F030FD00F0F7F8052000F038F894
:109FA000C30605D5FFF7EEFFBDE8084001F092BFFC
:109FB00008BD08B5FFF7E8FF08BD000008B5FFF7CA
:109FC000D9FC08B9FFF758FDFFF7DEFC084B187005
:109FD000FFF7E0FC074B1880FFF7EBFFFFF7D7FC1C
:109FE000FEF7BFFF044B1868BDE80840FEF7D5BF79
:109FF000F80C0020380E0020500C0020704708B5E7
:10A00000FFF7FCFF08BD704708B5FFF7FCFF08BD70
:10A01000014B33F810007047480E002070470320B2
:10A0200002F0E9BC00BF00BF00BF00BF00BF00BF1F
:10A0300000BF00BF00BF00BF00BF00BF00BF00BF28
:10A0400000BF00BF00BF00BF00BF00BF00BF704720
:10A0500008B5FFF7E4FF08BD08B5202282F3118898
:10A06000012100F00F03994020F00F0003F0C5FB21
:10A07000002383F3118808BD38B50C4D072455F82B
:10A08000040B421C01D0FFF7E7FF013C14F0FF0472
:10A09000F5D1074D0A2455F8040B431C01D0FFF7F6
:10A0A000DBFF013C14F0FF04F5D138BD60EB000884
:10A0B00038EB00082DE9F843244B0E4653F82110E5
:10A0C0004C1C074698463CD0202383F31188012579
:10A0D00021F00F0901F00F0105FA01F421462A468B
:10A0E0004846A4B203F089FBA9F81A40002484F37F
:10A0F0001188FFF797FF16490A2351F8042B501CCB
:10A1000021D022F00F0002F00F02006920FA02F2C3
:10A11000D20718D42AB2013B14436D0013F0FF0399
:10A12000A4B2ADB2E9D158F82600431C01D0FFF724
:10A1300093FF211C18BF01213046FFF789FF27F844
:10A140001640BDE8F8830022E5E700BF60EB000899
:10A1500038EB000810B50E24FFF78EFF22460021D1
:10A16000074804F023FC22460021064804F01EFCA8
:10A17000072000F035F8BDE81040FEF76EBA00BFCA
:10A18000480E00203A0E00201FB50E22002168461E
:10A1900004F00CFC0024E1B268460134FFF78AFFAA
:10A1A000072CF8D10E2269460B4804F0E3FB002887
:10A1B00014BF0124002404D00E226946064804F08E
:10A1C000E7FB234607220549034800F00BF8FEF79A
:10A1D0004DFA204604B010BD3A0E0020480E002073
:10A1E00070470000F8B506460F4615460E4C2BB1D9
:10A1F0000123237001F03CFE0C4B186023782BB137
:10A200000A4B186801F060FE04280AD8F8BD36F839
:10A21000132027F8132001339D42F8DC002323701C
:10A22000F4E70023F8E700BFF90C0020FC0C002045
:10A2300008B502F025F9FFF765FCBDE8084002F01B
:10A2400035B908B502F038F9FFF768FCBDE80840F9
:10A2500002F054B908B501F0C3FD02F00EF9FFF7A2
:10A2600035FCFFF7E5FFFFF7ECFFFFF745FCFAE7EA
:10A27000194B1B78D90709D5184B187800EB8000CB
:10A2800080087F2824D828B3C0B270479A0705D524
:10A29000124B187800EB80004008F2E75B0704D50A
:10A2A0000E4B187800EB8000EBE70D4B1B786BB181
:10A2B0000C4A0A49127808789342F3D210FB03F053
:10A2C00000EB8000B0FBF2F080B2DAE70520DBE7BC
:10A2D0007F207047012070470A0D00200E0C0020DF
:10A2E0000B0D00200F0C0020154B1B78D90705D54E
:10A2F000144B1878800800B3C0B270479A0703D592
:10A30000104B18784008F6E75B0705D50D4B187819
:10A310007F28F0D97F2070470B4B1B785BB10B4A2D
:10A32000084912780878934236BF10FB03F080B2D8
:10A33000B0FBF2F0ECE70120DEE70120704700BF40
:10A340000A0D0020120C00200C0D0020130C002020
:10A35000ED2808B505D1FFF78BFF4042294BD87097
:10A3600008BDEE2802D1FFF783FFF7E7EF2805D1FC
:10A37000FFF77EFF4042234B9870F1E7F02802D1AF
:10A38000FFF776FFF7E7F92804D1FFF7ADFF1D4B84
:10A390001871E5E7FA2803D1FFF7A6FF4042F6E778
:10A3A000FB2805D1FFF7A0FF4042164B5871D7E7B5
:10A3B000FC2802D1FFF798FFF7E700F10F03DBB2AB
:10A3C000072B08D80F4A0123F13803FA00F053781D
:10A3D00018435070C4E7FD2805D10B4A137843F0A9
:10A3E00001031370BCE7FE2804D1074A137843F039
:10A3F0000203F6E7FF28B3D1034A137843F00403BE
:10A40000EFE700BF040D00200A0D0020364BED28B9
:10A4100093F902200AD193F9031000290CDA0021E4
:10A42000D97052B9314A0021117006E0EE280DD1E1
:10A4300093F903100029F2DC72B11A795B791343A6
:10A440005BB2002B4FD12A4A13707047EF2806D118
:10A45000002AF1DA00229A7093F90320E1E7F0284C
:10A4600002D1002AF6DCE7E7F92893F9041004D1B9
:10A470000029E1DD00211971DEE7FA2802D1002967
:10A48000DADAF7E7FB2893F9051004D10029D3DACB
:10A4900000215971D0E7FC2802D10029F8DCCBE774
:10A4A00000F10F01C9B2072907D8F1380121814015
:10A4B000587820EA01005870BEE7FD2805D10D4804
:10A4C000017821F001010170B6E7FE2804D10948A6
:10A4D000017821F00201F6E7FF28ADD105480178A7
:10A4E00021F00401EFE77047040D00200B0D002060
:10A4F0000C0D00200A0D002008B501F0D9FC094B15
:10A50000DA7899780A431CBF074A10801A795B7978
:10A5100013431CBF054B18800248BDE8084001F0FA
:10A52000C1BB00BF040D0020000D0020020D002063
:10A530002DE9F047564C94F9028094F9037094F990
:10A54000046094F9055094F800A094F80190002359
:10A55000A370E3702371637158EA07030AD04D4B6F
:10A56000188801F0AAFC4C490B783BB34B4A12788F
:10A5700090422DDC56EA05030BD0494B188801F0B8
:10A580009CFC48490B78002B4ED0474A12789042E9
:10A5900054DCE278A378134322791343627913439E
:10A5A00001D0FFF7A9FF84F800A084F8019084F897
:10A5B0000280E77026716571BDE8F0873B4A12782A
:10A5C00002EB8202B0EB420FD4DD01330B7001E0ED
:10A5D000FF2BFAD1B8F1000F08D0FFF749FEB8F110
:10A5E000000FCCBF0123FF235843A0703FB1FFF7FA
:10A5F0003FFE002FCCBF0123FF235843E07094F9A6
:10A600000220002AB6D094F903100029B2D0B52355
:10A610005A43121203FB01F308BF01221B1208BFA9
:10A620000123A270E370A5E7214A127802EB8202AF
:10A63000B0EB420FADDD01330B7001E0FF2BFAD11F
:10A640003EB1FFF751FE002ECCBF0123FF2358433C
:10A6500020713DB1FFF748FE002DCCBF0123FF2341
:10A660005843607194F90420002A92D094F905109F
:10A6700000298ED0B5235A43121203FB01F308BF01
:10A6800001221B1208BF01232271637181E700BF01
:10A69000040D0020000D00200B0D00200D0C0020EB
:10A6A000020D00200C0D0020110C00200C0C0020CD
:10A6B000100C002008B506220021054804F076F9A8
:10A6C000044A00231370044A1370044A137008BD2F
:10A6D000040D00200B0D00200C0D00200A0D0020A1
:10A6E00007B50023014601220DF107008DF8073060
:10A6F00000F070F89DF8070003B05DF804FB07B5A3
:10A700000023014602220DF10600ADF8063000F0EC
:10A7100061F8BDF8060003B05DF804FB07B504223C
:10A72000002301460DEB0200019300F053F801985D
:10A7300003B05DF804FB07B501228DF80710014650
:10A740000DF1070000F05AF803B05DF804FB07B5FF
:10A750000222ADF8061001460DF1060000F04EF899
:10A7600003B05DF804FB07B50422019101460DEB2F
:10A77000020000F043F803B05DF804FB38B50C4666
:10A780000546FFF7ADFFA04205D021462846BDE8AB
:10A790003840FFF7D0BF38BD38B50C460546FFF747
:10A7A000AEFFA04205D021462846BDE83840FFF75D
:10A7B000CEBF38BD38B50C460546FFF7AFFFA04207
:10A7C00005D021462846BDE83840FFF7CCBF38BD4C
:10A7D00001F0CAB937B549BA04461546ADF80410B8
:10A7E000642301A90222A02001F0E6F96423AAB2A1
:10A7F0002146A02001F012FA03B030BDF0B50746A3
:10A800008BB015460E460DB90BB0F0BD06F01F0417
:10A81000C4F1200473BAAC42ADF8043028BF2C4612
:10A820000023DAB2A24203F101030EDBA21C64236F
:10A8300092B201A9A02001F0BFF94FF4FA7002F022
:10A84000DAF8274426442D1BDDE70AA91144BA5C37
:10A8500001F8222CE5E710B588B0202200216846D7
:10A8600004F0A4F800242146202268462034FFF793
:10A87000C5FFB4F5005FF6D108B010BD30B585B0A6
:10A88000C0F307220190C0F30740BAB909B1314BB8
:10A89000185C8DF80C008DF80D008DF80E009DF8F9
:10A8A0000C30002063F307009DF80D3063F30F2098
:10A8B0009DF80E3063F3174005B030BD9DF80430AD
:10A8C00071B32449085C03EB4304FF216400B4FB2B
:10A8D000F1F46FF05401614301EB430101EB4101DD
:10A8E000C9B212FB01F3C1F1FF01C2F1FF054A43F6
:10A8F0001B121212C3F1FF03C2F1FF02454343438F
:10A900004243C5F30725C3F30723C2F30722C0B2AE
:10A91000062C19D8DFE804F00608110F14180600F9
:10A9200080B2D0E7034610468DF80C008DF80D304C
:10A930008DF80E50B3E7024618462B461546F3E74E
:10A94000134602462846F9E7024628461D461346A6
:10A95000EAE700BFB8EC000884B0012104B0FFF7BB
:10A960008DBF704784B004B0FFF7F6BF13B58DF804
:10A9700002208DF800008DF8011000981C46FFF7AA
:10A98000F1FFC0F30743C0F3072262702070A37089
:10A9900002B010BD064A137813F0FE0F04D1012156
:10A9A00061F3470313707047492BFCD92421F7E763
:10A9B000580E00200820FFF7B1BE08B5FFF7EAFFE8
:10A9C000BDE8084001460820FFF7F4BE014B1868B7
:10A9D000FFF7F3BF580E0020034B04481860002215
:10A9E0001A71FFF7EABF00BF580E00200300FFFFF7
:10A9F000034B1B7813F0010018BF5808704700BFC5
:10AA0000580E0020044A1379022B9CBF01331371A6
:10AA100008B1FFF7DBBF7047580E00200120FFF799
:10AA2000F1BF0000044A13790BB1013B137108B167
:10AA3000FFF7CCBF704700BF580E00200120FFF782
:10AA4000F1BF00F0F1BD0000104B11481B7870B54C
:10AA5000104D13F00103697806D02B7803EB430304
:10AA60001844FFF7EEFF70BDAA78EE7802EB4204BF
:10AA70000444964204F10304EFD9013204F8023C85
:10AA800004F8033C04F8013CD2B2F2E7580E00206F
:10AA9000600E0020170C00200E4B1B78DB0770B4F3
:10AAA00016D50D4C0D4EA378E57803EB43043444E2
:10AAB000AB4204F1030402D370BCFFF7C5BF0133FE
:10AAC00004F8020C04F8031C04F8012CDBB2EFE7D5
:10AAD00070BC7047580E0020170C0020600E00203C
:10AAE000094B1B78DB0707B50AD501ABFFF73EFF23
:10AAF0009DF806209DF804109DF80500FFF7CCFF97
:10AB000003B05DF804FB00BF580E0020064B02792D
:10AB1000064910B504468A5C58789978FFF7E0FF3B
:10AB200023790133237110BD580E0020B8EB0008C3
:10AB3000054B10B50446DA7899780079FFF7D0FF15
:10AB400023790133237110BD580E002037B5164C00
:10AB50000546207838B9FF2201AB1146FFF706FF02
:10AB60009DF8053023702979012915D089B1022972
:10AB700016D0002210461146FFF78EFF2B790322D4
:10AB80000133B3FBF2F202EB42029B1A2B7103B0CA
:10AB900030BD20780A46EFE7002221781046EBE727
:10ABA000002022780146E7E7170D00202DE9F04F3D
:10ABB000334C94F800C085B01CF0010F0546884660
:10ABC0001646019320D04FEA5C032E4FDFF8C0E019
:10ABD000FF5C8EF800700CF0FE0CBCF1020F16D179
:10ABE00003ABFFF7C3FE9DF80E209DF80C109DF8F7
:10ABF0000D00FFF751FF019B657084F80280E6703D
:10AC000013B12068FFF7D9FE05B0BDE8F08F022F21
:10AC100001D1E678EFE7062F01D16578EBE7092F40
:10AC2000FBD0192FE7D1193BDBB203F001020092F0
:10AC30005B08154ADFF85C9012F803A00027CB46AA
:10AC400099F80420FBB29A4202D8FFF7FDFED2E742
:10AC500003FB0AF0B0FBF2F0009AC0B272B92844CC
:10AC60009BF802201344094A03EB43031344C0B288
:10AC700032464146FFF77AFE0137E1E7281AEFE74F
:10AC8000580E002093EB000880EB0008600E0020B7
:10AC90001A0D0020170C0020054910B44C78CA7812
:10ACA000897808340346E0B25DF8044BFFF77EBFB5
:10ACB000580E00200120FFF7EFBF0000054910B437
:10ACC0004C78CA788978083C0346E0B25DF8044BBA
:10ACD000FFF76CBF580E00200120FFF7EFBF000008
:10ACE00010B4074CA178E2780831FF2928BFFF2172
:10ACF0000346C9B260785DF8044BFFF757BF00BF49
:10AD0000580E00200120FFF7EBBF000010B4064CE6
:10AD1000A178E278083921EAE1710346C9B2607886
:10AD20005DF8044BFFF742BF580E00200120FFF7EB
:10AD3000EDBF000010B4074CE278A1780832FF2A7A
:10AD400028BFFF220346D2B260785DF8044BFFF7BC
:10AD50002DBF00BF580E00200120FFF7EBBF000001
:10AD600010B4064CE278A178083A22EAE27203466F
:10AD7000D2B260785DF8044BFFF718BF580E002080
:10AD80000120FFF7EDBF0023FFF710BF2DE9F041D1
:10AD9000144EDFF85880144F044600253179E8B28C
:10ADA00081420DD8FFF750FEA37813F0010F2379ED
:10ADB00014BF013303F1FF335BB22371BDE8F081AF
:10ADC000B378FF22B2FBF1F22179034403EB430392
:10ADD00002FB00104344FA78B978C0B2FFF7C6FD11
:10ADE0000135DBE7170C0020580E0020600E002014
:10ADF0002DE9F74F8378314E314D13F0010F0CBF21
:10AE000001234FF0FF3300934FF0000933795FFACD
:10AE100089F843450CD8FFF717FE009B012B2B78D0
:10AE200044D103B93379013B2B7003B0BDE8F08FF7
:10AE3000B378244ADFF890B0434403EB430303EBB9
:10AE4000020A00248AF801409C549DF800308AF8D8
:10AE50000240019327462A782244D2B253B20A2BE9
:10AE60001EDD0A2193FBF1F201FB12335BB2984520
:10AE70000DD19BF803309BF802109BF80100C7F13D
:10AE800004025A43C2F387025346FFF76FFD019B4A
:10AE900001371C44042FE4B2DDD109F10109B5E703
:10AEA000002BE4DA054B1B791344DFE731790133DA
:10AEB000B3FBF1F201FB1233B6E700BF170C002021
:10AEC000180D0020600E0020580E00202DE9F843D8
:10AED0002B4C2C4DA378E07803EB43022A4400214D
:10AEE000984202F1030220D8274EDFF8A090DFF845
:10AEF000A48000272179FAB291421FD8FFF7A4FD60
:10AF0000224D23482A78017833780A4452B20B4400
:10AF10005BB2002A33702A7003DD2279013A934232
:10AF200001DB49420170BDE8F883013302F8021CDD
:10AF300002F8031C02F8011CDBB2D1E7B2FBF1F30B
:10AF400001FB1323A1780B4496F90010DBB28A426F
:10AF500003EB43030EDB99F900108A420ADC2B4411
:10AF600098F8032098F8021098F80100FFF7FEFC0B
:10AF70000137BFE7E91800224A70EA548A70F7E700
:10AF8000170C0020600E0020160D0020140C00206D
:10AF9000150C0020580E0020037913FB03F25A43CE
:10AFA000C3F120032DE9F04703FB03F15525554379
:10AFB00003FB0123B5FBF3F5EDB2292D85BFC5F1E8
:10AFC000550404EB440405EB450404EBD474DFF8AA
:10AFD0007480DFF874A094BF6FEA54046FEA6404CD
:10AFE0000646E4B20027C14698F80420FBB29A4214
:10AFF0000BD8FFF729FD3379104AD3B9012111701D
:10B00000127813443371BDE8F0879A0799F802204B
:10B010000B49134458BFC5F1550003EB430354BF1C
:10B02000C0B22846534422468978FFF79FFC013777
:10B03000DAE7202BE4D1FF21E1E700BF160C002066
:10B04000580E0020170C0020600E00202DE9F04162
:10B05000154FDFF85C80154D064600243A79A24270
:10B0600008DCFFF7F1FC3379013303F0010333719E
:10B07000BDE8F081BB7896F804C06878A9782344CD
:10B0800003EB4303B4EB520F434407DABCF1000F68
:10B0900007D0EA78FFF76AFC0134DFE7BCF1000F64
:10B0A000F7D00022F6E700BF170C0020580E002052
:10B0B000600E002008B5094B1A786FF300021A7071
:10B0C0001868FFF77AFC064B002241F288305A706C
:10B0D00001F091FCBDE80840FFF7B6BC580E002017
:10B0E0001A0D002008B5084B1A786FF300021A7089
:10B0F000064B002241F288305A7001F07CFCBDE81A
:10B100000840FFF7A1BC00BF580E00201A0D002018
:10B11000084B00225A70084B1A784AB901221A705B
:10B12000064B074A1B78C3F300031370FFF7DABF1F
:10B13000704700BF1A0D0020150D0020580E00208A
:10B14000190D002008B5084B084819780B2249084A
:10B15000FDF786F910B9064B01225A7000F0A8FEDF
:10B16000044B188008BD00BF580E00201C0C0020A6
:10B170001A0D00200E0D002010B5164C2378DA07AA
:10B1800026D5D8B9012262F34703237011B1206894
:10B19000FFF713FC217810480B224908FDF760F9EE
:10B1A00098B10E4B00225A700D4BA17860780122A5
:10B1B000DA70E278BDE81040FFF7E5BD242801D938
:10B1C0002422E0E760F34703DFE7FFF7BBFFEBE78D
:10B1D00010BD00BF580E00201C0C00201A0D0020CE
:10B1E0000E0D0020054B1B785B080133252B014613
:10B1F00034BF18460120FFF7BFBF00BF580E002024
:10B200000120FFF7EFBF0000064B1B78C3F3460396
:10B21000013B13F0FF03014614BF18462420FFF73B
:10B22000ABBF00BF580E00200120FFF7EDBF01218A
:10B23000FFF7A2BF034B187840F0010018704008D8
:10B24000FFF7F5BF580E0020034B1B78DB0701D535
:10B25000FFF730BFFFF7EEBF580E00200021FFF7C9
:10B260008BBF000038B5124D2A78FAB9FEF782FB81
:10B2700018B9FEF701FCFFF7AFFBFFF79BFB0D4C86
:10B2800010F0FE0F206004D1FFF7A6FBFFF792FB42
:10B290002060FFF77FFB084B207800225A70C3071D
:10B2A00002D54008FFF7DAFF01232B7038BD00BF3D
:10B2B000140D0020580E00201A0D0020034B1878A2
:10B2C00040F0010018704008FFF7C8BF580E00207A
:10B2D00008B5064B00221A70054B1B780BB1FFF71F
:10B2E000EDFFBDE80840FFF72DBF00BF150D0020A2
:10B2F000190D00202D4B5A782DE9F041002A53D02A
:10B300001A782B4B2B4D1B78C2EB5303DBB2022A6E
:10B31000AB701AD1284A294CD65CEB782BB10027A8
:10B32000EF7000F0C5FDAF80288000F0C1FD2B88D4
:10B33000C01A80B247F6FE72904235D81E442E8065
:10B3400023461C48BDE8F0411847062A03D11C4A91
:10B350001C4CD65CE1E7092A04D15B081A4A1B4C55
:10B36000D65CDAE70F2A04D15B08194A194CD65C7F
:10B37000D3E7152A03D1184A184CD65CCDE7182A12
:10B380000FD0232A03D1164B164C1E88C5E7164B47
:10B39000164C242A12BF4FF4FA664FF4FA761C4674
:10B3A000BBE72826124CB8E7BDE8F0811A0D002053
:10B3B000580E00200E0D00207CEB00080DAB00089D
:10B3C00088EB000831AB00088BEB00088DAD00085E
:10B3D00090EB0008F1AD000885EB0008CDAE000849
:10B3E0008EEB00084DAB00084DB0000863A90008C3
:10B3F00099AF000800B11047084738B504460D461C
:10B40000FFF7F6FAA04207D3FFF7F2FAA84203D2F9
:10B41000BDE83840FFF7F4BE2046BDE83840FFF7EE
:10B4200006BF000038B58C780546002C00F09F80E0
:10B43000FEF79EF945F6CD439D4200F022007CD0F8
:10B4400035D845F6C7439D426BD015D845F6C44361
:10B450009D425ED005D845F6C3439D4255D0204657
:10B4600038BD45F6C5439D4258D045F6C6439D427A
:10B47000F5D1404A40494EE045F6CA439D4256D078
:10B480000AD845F6C8439D424ED045F6C9439D4271
:10B49000E5D13A4A3A493EE045F6CB439D4249D090
:10B4A00045F6CC439D42DAD1364A374933E045F67A
:10B4B000D2439D4250D00FD845F6CF439D4243D052
:10B4C0003ED345F6D0439D4243D045F6D1439D42FD
:10B4D000C5D10E21092039E045F6D5439D4241D022
:10B4E00009D845F6D3439D4239D045F6D4439D4211
:10B4F000B5D1182025E045F6D6439D4235D045F616
:10B500005E539D4208BF0024A9E7FFF79DFE00247B
:10B51000A5E71E4A1E49FFF76DFFF8E71C4A1B49C5
:10B52000F9E7154A1349F6E7154A1449F3E7194AAA
:10B530001949F0E7184A1749EDE7134A1149EAE7B4
:10B540000120FFF774FEE2E705210220FFF755FF17
:10B55000DDE708210620F9E714210F20F6E717217F
:10B560001520F3E722211920F0E72320E9E7012441
:10B5700075E700BFD9AC0008B5AC000805AD000800
:10B580002DAD00083DAA00081DAA000829B2000838
:10B5900001B2000881AD000859AD000810B51D4C7E
:10B5A0000721012202FA01F3034022831AD000236B
:10B5B00000BF00BF00BF00BF00BF00BF0133062BAC
:10B5C000F6D1628300BF00BF00BF00BF00BF00BF55
:10B5D00000BF00BF00BF00BF00BF00BF11F1FF31BF
:10B5E000E0D210BD00BF00BF00BF00BF00BF00BF62
:10B5F00000BF00BF00BF00BF00BF00BF628300BF2D
:10B6000000BF00BF00BF00BF00BF0133062BF6D153
:10B61000E4E700BF0000024001221146014802F0A9
:10B62000ECB800BF00000240F8B51B4D2B78044673
:10B630000E461BB9FFF7F0FF01232B70202383F385
:10B64000118800235F1CDBB2B34216D3DFED137AFF
:10B65000002300BF00BF00BF00BF00BF00BF013319
:10B6600007EE103AB8EEC77AB4EEE77AF1EE10FAC8
:10B67000EFD4002383F31188F8BD03EB4303E518EF
:10B68000E05CFFF78BFF6878FFF788FFA878FFF78B
:10B6900085FF3B46D6E700BF1C0D00200000C444D8
:10B6A00038B505468878002800F0198145F603531F
:10B6B0009D422FD845F6FB439D4204D2A5F5B843E1
:10B6C000023B132B2AD8FEF765F9864C45F610434A
:10B6D0009D42208000F0DC8046D845F608439D421C
:10B6E00000F0AC8025D845F604439D4200F09180DF
:10B6F00015D845F602439D4200F0828045F603438B
:10B700009D4200F082802088FEF750F9FDF7CCFBC7
:10B71000002003E045F662539D42D4D038BD45F683
:10B7200006439D4200F0868077D9237843F02003BA
:10B7300069E045F60C439D4200F0968009D845F635
:10B740000A439D4200F084807CD923786FF3000384
:10B7500059E045F60E439D4200F08E8040F288800D
:10B7600023786FF304134EE045F6FD439D4200F04D
:10B77000878024D845F614439D4200F0A0800AD863
:10B7800045F612439D4200F08B8040F2858023787D
:10B7900023F00C0337E045F6FB439D4241D045D8EA
:10B7A00045F615439D42AED12378C3F3800282F063
:10B7B0000102D2B262F3820362F3C30323E045F6CF
:10B7C00001539D4272D00AD845F6FF439D4245D0B1
:10B7D000B5F5BA4F58D3637823F0030324E045F658
:10B7E00003539D4279D074D345F662539D428AD16A
:10B7F0002378C3F3001282F0010262F3041302E023
:10B80000237843F0010323707DE7237843F002039C
:10B81000F9E7237843F00403F5E7237843F00803BE
:10B82000F1E7637843F0010363706CE7637843F0FA
:10B830000203F9E7237843F01003E4E7237843F0A9
:10B840004003E0E7FDF730FB237843F08003DAE7BD
:10B85000237823F00C0343F00C03D4E7637823F040
:10B86000030343F00303DFE723786FF34103CAE7E1
:10B8700023786FF38203C6E723786FF3C303C2E72D
:10B8800063786FF30003CFE763786FF34103CBE78F
:10B8900023786FF34513B6E723786FF38613B2E787
:10B8A000FDF702FB23786FF3C713ACE76378DA4345
:10B8B00002F0010262F3000362F34103B4E7FDF713
:10B8C000F3FA2378C3F3C01282F0010262F3C713C4
:10B8D00099E70120FEF7D2F815E70020FAE70120EA
:10B8E0001CE700BF380E00200120704710B50B4C3C
:10B8F00020221146204601F080FF20221021204600
:10B9000001F07BFF22692369DB08C2F3401203F0D8
:10B9100002031343024A137010BD00BF000402402B
:10B920001E0D00201E4B1A691B6910B5DB08C2F3FF
:10B93000401203F0020313431A4A1B4C117843EAE6
:10B940008103DBB21370194A03F00F03D35C227832
:10B9500013445BB2032B237020DD154A13780021BA
:10B96000013308461370FCF7D3FD012094F9003031
:10B97000033308DA0E4A13780121013B00201370CB
:10B98000FCF7C6FD012094F900305A4202F0030290
:10B9900003F0030358BF5342237010BD0020E5E7B6
:10B9A000000402401E0D00201D0D0020B8ED00080F
:10B9B0001F0D002045F61643984210B50C461BD1CA
:10B9C000FDF7D6FEA2780D4B72B100F0AA00002858
:10B9D00015BF01220022352029201A70FDF798FE9C
:10B9E000FDF728FF002010BD1B78002B14BF352069
:10B9F0002920FDF795FEF3E70120F4E7200D002054
:10BA0000F8B5144682789DF818701D46284B92B1FF
:10BA10001C7000F04DFA274B188004F12003DBB2B4
:10BA2000072B44D804F007040120A040C0B2BDE8B1
:10BA3000F840FCF7F7BF1E78A6422ED11D4B1888A0
:10BA400000F03BFAC72828D8AE4205F1200415D0F3
:10BA500006F12003DBB2072B06D806F0070601200B
:10BA6000B040C0B2FCF7E7FFE3B2072B06D805F001
:10BA7000070301209840C0B2FCF7D4FF3846E4B277
:10BA8000FCF7CAFF072C12D805F007050120A840D3
:10BA9000C0B2BDE8F840FCF7CEBF04F12003DBB232
:10BAA000072B04D804F007040120A040F0E7F8BDFC
:10BAB000210D0020220D002013B545F6F443044665
:10BAC0009C42084626D011D845F6D9439C421CD04A
:10BAD00045F6DA439C4237D045F6D8439C420ED116
:10BAE00026230093E1231A4621461EE045F6F6433D
:10BAF0009C421FD013D345F6F7439C421FD0807859
:10BB000030B3144B00221A7012E027230093E52370
:10BB1000E522E9E726230093E022E123E4E7272357
:10BB20000093E422E52345F6F541FFF769FF002085
:10BB300002B010BD26230093E222E123D4E727239D
:10BB40000093E622E523CFE7282300930123DFE7D4
:10BB50000120EDE7210D002028B120280CBF6FF057
:10BB600001004FF0FF307047114B10B51C78ECB955
:10BB700001221A70402122460E4801F03EFE224664
:10BB800080210C4801F039FE4FF47A7000F033FF49
:10BB900040F206224021074801F02FFE40F2062223
:10BBA00080210448BDE8104001F027BE10BD00BF51
:10BBB000250D0020000402402DE9F043134D144CE4
:10BBC00085B00F462070134928469046994600F0EC
:10BBD000C8FFDFF844C0247840F2E7300021ECFBD6
:10BBE00009014FF47A720023FCF7B8FA00266408C2
:10BBF00002900196009643463A462146284600F0B8
:10BC0000BEFF05B0BDE8F043FFF7A6BF241000203B
:10BC1000240D0020C8ED0008A08601002DE9F341A5
:10BC2000114D124C0E462070114928461746984671
:10BC300000F097FFDFF83CC0247840F2E7300021A5
:10BC4000ECFB08014FF47A720023FCF787FA6408D2
:10BC500000903B4632462146284600F0AAFF02B03B
:10BC6000BDE8F041FFF778BF24100020240D00202C
:10BC7000C8ED0008A0860100014B1860704700BFA6
:10BC8000280D0020024B186808B103681847704758
:10BC9000280D0020024B1B680BB15B6818477047EA
:10BCA000280D0020034B1B681BB1022101709B680B
:10BCB00018477047280D0020054B1988814205D090
:10BCC0001880044B1B680BB1DB681847704700BF36
:10BCD0002E0D0020280D0020054B1988814205D02B
:10BCE0001880044B1B680BB11B691847704700BFD5
:10BCF0002C0D0020280D0020821C00F108030020DC
:10BD00009A4200D1704712F8011B0029F8D0013087
:10BD1000C0B2F5E739B1831C083013F8012B8A4211
:10BD200003D08342F9D1002070470120704730B51D
:10BD30004FF0FF33851C002215F8014B8C420ED0CA
:10BD4000B3F1FF3F02D1002C08BF13460132D4B239
:10BD5000062C62B2F0D15A1C01D01844817030BD5B
:10BD600010B5831C0022083013F8014B8C4208BF29
:10BD700003F8012C8342F7D110BDFFF7D8BFFFF7BE
:10BD8000EFBF06220021023002F010BE704708B556
:10BD9000FFF7FCFF08BD000008B50028034B14BFE7
:10BDA000022001201870FFF7F2FF08BD300D0020BF
:10BDB00008B5034B03201870FFF7E9FF08BD00BF6B
:10BDC000300D0020FFF7E8BF08B5034B01201870C5
:10BDD000FFF7DDFF08BD00BF300D0020FFF7F4BF07
:10BDE00008B500F08FFEBDE8084000F0F9BB08B5CB
:10BDF000FCF79EFC40F2A460BDE8084000F0FBBDEB
:10BE00007047704710B5FFF7FBFFFEF7BDF9FFF76E
:10BE1000F8FF0024E0B2FEF7FBF818B90134072C54
:10BE2000F8D110BD0120FCE708B5FDF7B7FCFDF720
:10BE3000CBFCFDF77DFCFEF73DFC0020FFF73CFF4F
:10BE40000020FFF749FFBDE80840FCF780BC000078
:10BE500008B5202383F3118800F076FE002383F3D6
:10BE60001188014B186008BD340D0020FFF7F0BFAA
:10BE700038B5202383F3118800F066FE002383F396
:10BE80001188084B084C1968084A411A00254FF4DC
:10BE90007A70E0FB0145002320462946FCF75EF955
:10BEA00038BD00BF340D00209F860100A086010030
:10BEB00008B5FFF7DDFF80B208BD10B50446FFF7F7
:10BEC000D7FF001B80B210BD10B50446FFF7D0FFAE
:10BED000001B10BD074B084A1A60BFF34F8F07497C
:10BEE000074BCA6802F4E0621343CB60BFF34F8F85
:10BEF00000BFFDE7FCFF0020EFBEADDE00ED00E07F
:10BF00000400FA050A4A08B552F8041C094B994284
:10BF10000DD1002342F8043C83F31488064B1B68C0
:10BF200083F3088862B6054B1B689847FEE708BD97
:10BF300000000120EFBEADDE0000FF1F0400FF1F68
:10BF400010B5084A084C117824784B1C03F00F03F5
:10BF50009C421DBF054C13706054002018BF012087
:10BF600010BD00BF8E0E00208F0E00207E0E002020
:10BF7000202383F31188002383F3118870477047CF
:10BF800038B5084C2546002045F8040F42EA012048
:10BF90002A46194600F0B4FA20606068002818BFED
:10BFA000204638BD380D002090F84A10054B022974
:10BFB0001A7804D1012A01D0062A02D15A78024BFC
:10BFC0001A7070477C0D00206C0D002010B50446DF
:10BFD000052922D8DFE801F01D21031D1D1F2023A4
:10BFE00083F311880D4A012100F043FE0C4A02211F
:10BFF000204600F03EFE002383F31188094B1B7896
:10C0000013B10520FFF79CFF0220BDE81040FFF7A9
:10C0100097BF0846F9E70520F7E710BDD4ED000803
:10C02000F8ED0008750D002038B505460C462023B4
:10C0300083F311880F4B1A78042A03D0002383F36B
:10C04000118838BD1A89520708D55B6958694FF4C1
:10C050007A710C3000F0DCFC0130EFD0064A054864
:10C0600054700323240A02211570947000F053FECB
:10C07000E4E700BF5C100020760D002070B5044698
:10C080000648C3680D460BB100F048FB2B4621461D
:10C09000034A0248BDE8704000F0F8BA580D00208D
:10C0A000A5C0000870B52023064683F311880378E5
:10C0B000042B03D0002383F3118870BD124C227827
:10C0C000002AF7D0114B1B78002BF3D003899B0774
:10C0D00004D408230E4A012100F01DFE0D4B2478E4
:10C0E00040F2E730A4FB034520184FF000014FF465
:10C0F0007A724FF0000345EB0101FCF72FF831464F
:10C100008000FFF7BBFFD5E7540D0020280C00206E
:10C110006D0D0020A0860100F8B590F8443003F0C2
:10C120007F02212A04466CD113F0800525D0002D12
:10C1300067D090F84500022819D003280ED00128B6
:10C140005FD194F848302BB93D4AA2630822E263DC
:10C150002364F8BD0023A363E363F9E7B4F8483030
:10C16000002B4ED1374AA2630120E063F0E7364B43
:10C17000A3630120E0630023EAE790F845300A2B2F
:10C180003AD00B2B0DD0092B3BD190F84830012B26
:10C1900037D82E4B83630223C3632D4B23640120C6
:10C1A000D7E7B0F848501DBB90F84630254A003319
:10C1B00018BF01231370244B1A78CAB1202282F3CE
:10C1C00011881E78234B40F2E730A6FB0367301836
:10C1D0004FF000014FF47A724FF0000347EB01017A
:10C1E000FBF7BCFF21468000FFF748FF85F311886D
:10C1F0000023A363E363D1E7134B90F847201A7041
:10C20000DBE7B4F8442040F281639A4201D0002079
:10C210009FE794F84920616894F848304D6894F895
:10C22000471043EA0223204694F84620A8470028F6
:10C23000EDD04368A3630368E3630023AEE700BF68
:10C240006D0D0020280C0020540D00207C0D0020D6
:10C25000A9BF0008A08601007047000008B51022A1
:10C260000021044802F0A2FB034A00231370034A92
:10C27000137008BD7E0E00208E0E00208F0E002051
:10C28000F8B5294D294E2C4630782B78284F0021BF
:10C29000984230D101B12070F8BD2370254B0122A6
:10C2A0001A70254B93F84F10081C18BF0120FFF798
:10C2B0007FFDE9E723701F4B00221A70FFF7B4FDE2
:10C2C0001D4B93F84F10081C18BF0120FFF77AFD93
:10C2D000DAE72370184B93F84F10081C18BF0120A1
:10C2E000FFF75AFDD0E7002123700846F8E72370D6
:10C2F000FFF76AFDC8E71A460133BA5C03F00F0383
:10C300000121052AC4D80FF2080C5CF822F000BF06
:10C31000EFC2000891C20008D3C20008E7C20008BB
:10C320009BC20008B5C200088F0E00208E0E0020B0
:10C330007E0E0020750D00205C100020426D936B76
:10C3400023F4002310B593630446084800F053FB20
:10C350000749204600F051FC626D936B43F40023C3
:10C360009363044B0022DA6010BD00BFF049020065
:10C370001CEE0008580D002010B5044600F04FFCDC
:10C38000626D0749936B23F400239363204600F00A
:10C3900034FC626D936B43F40023936310BD00BFC4
:10C3A0001CEE0008014B1878704700BF6C0D002090
:10C3B00038B50546202383F31188104C2378042BCD
:10C3C0000DD123899B070ED42A4601210B4808234F
:10C3D00000F0A1FC08222946094802F0D9FA0023FE
:10C3E00083F3118838BD236958694FF0FF310C3051
:10C3F00000F00EFB2378042BE6D0F0E75C10002061
:10C400006D0D002010B52023044683F311880D4BD9
:10C410001A78042A03D0002383F3118810BD1A89E7
:10C42000520708D55B6958694FF47A710C3000F0F7
:10C43000EFFA0130EFD0062322460221014800F036
:10C440006AFCE8E75C10002001460320FFF7ECBD22
:10C4500001460420FFF7E8BDFFF754BD704708B55B
:10C46000FFF7FAFF02F03EFAFFF7F8FF08BD08B544
:10C4700002F07EFAFCF744F808BDFFF7AFBC0000FD
:10C4800008B5FFF7EBFE0648FFF758FF054B064AD5
:10C490001A6041F28830BDE8084000F0ACBA00BF35
:10C4A0005C100020940D00202C0C0020014B18681B
:10C4B000FFF7E2BB940D002038B50F4CFFF7E0FE0C
:10C4C0002378052B16D125462378052B05D0FDF7BB
:10C4D000B1F9BDE83840FEF70FB8FFF788FCFFF769
:10C4E00091FC0028F0D0284600F027FC2846FFF7F2
:10C4F00043FFE9E738BD00BF5C1000207047000033
:10C50000030A032B11D006D8012B1ED0022B1FD0FB
:10C510000020034611E0212B11D0222BF8D1E9B1E4
:10C520000129F5D17B200F4B07E0C0B20228EFD8DC
:10C530000D4B0E4953F82030085C1360704751B121
:10C540000129E5D109200A4BF7E71220094BF4E74E
:10C550003B20094BF1E70920084BEEE74020084B50
:10C56000EBE700BFFEEE00082CEE000838EE0008F6
:10C5700066EE000876EE00083BEE00084DEE00087F
:10C5800088EE0008024B034A1A60034A5A6070475B
:10C59000900E0020C010002000000120704770475E
:10C5A000FEE700000C4B70B50820002493E826003D
:10C5B0000439954207D8D968914209D8013803F166
:10C5C0001003F3D170BD51F8046F42F8046BF0E72B
:10C5D00042F8044BF0E700BF7CEF0008FEE70000E4
:10C5E00010B50D4C00F002F900F042F8FFF7CAFF59
:10C5F00080220A49204600F0B6F9012344F8180CBD
:10C60000037400F031FA002383F3118862B6044802
:10C61000BDE8104000F0D2B900100020FCEF000887
:10C6200004F0000872B6014B5862FEE7D80F0020F4
:10C6300000F0AAB8034B59685A68521A9042FBD8C6
:10C64000704700BF001000E0022938BF022170B51A
:10C6500004460D460226601900F072FA00F074FAE2
:10C66000041BA54203D8013635460446F3E770BDE6
:10C67000054B03F114025A619A614FF0FF32DA61FF
:10C6800000221A62704700BFD80F0020F8B503617E
:10C69000C2600E46054600F057FA1F4B1946044685
:10C6A00051F8142F8A421F4617D118626A605A69DE
:10C6B000AE60022E38BF02262A60304455605D61AC
:10C6C00000F031FAE51C00F03FFA001BB0421FD326
:10C6D000284600F035FA0135F5E71B6AC41A34190B
:10C6E000936828BF3446A34202D93146FFF7ACFF16
:10C6F0007B699A6894420CD85A68AC602B606A6077
:10C7000015609A685D60141B9C604FF0FF33FB61FD
:10C71000F8BDA41A1B68ECE7D80F002010B5194C1F
:10C72000636998420DD003684268816813605A605B
:10C730000022C2609A680A449A604FF0FF33E361B6
:10C7400010BD2346026843F8142F53600022C260D4
:10C7500062699A4203D1BDE8104000F0ECB99368D9
:10C7600081680B44936000F0EFF96269236A926874
:10C77000C41AA242E4D91344191ABDE81040FFF7C5
:10C7800063BF00BFD80F00202DE9F041164C0027F1
:10C7900004F11406656900F0D7F9236AAA68A0EBD2
:10C7A000030C624515D8134423626A682B68136032
:10C7B0005A606369D5F80C80EF60B34201D100F094
:10C7C000BAF987F311882869C047202383F31188B9
:10C7D000E0E76469B44205D01344191ABDE8F0419A
:10C7E000FFF732BFBDE8F081D80F0020024B0022D6
:10C7F0001B605B609A607047D80F002000230374B1
:10C800008268054B1B6899689142FBD25A680360A5
:10C810004260106058607047D80F002008B5202390
:10C8200083F31188027C0023052A06D8DFE802F092
:10C830000B050503120E426913604FF0FF3343618D
:10C84000FFF7DCFF002383F3118808BD426993687A
:10C85000013393604268036813605A60EDE700009B
:10C86000002303748268054B1B6899689142FBD8CA
:10C870005A6803604260106058607047D80F00200B
:10C88000054B19690874186802681A6053601861CA
:10C8900001230374FBF748BCD80F002030B54B1CB4
:10C8A00087B005460A4C10D023690A4A01A8FFF751
:10C8B000EDFE2846FFF7E4FF049B13B101A8FFF744
:10C8C0002DFF2369586907B030BDFFF7D9FFF8E79E
:10C8D000D80F00201DC8000838B50C4D41612B69E8
:10C8E00081689A689142044603D8BDE83840FFF752
:10C8F00085BF1846FFF7B4FF01232C61014623745E
:10C900002046BDE83840FBF70FBC00BFD80F002021
:10C91000044B1A681B6990689B68984294BF00207A
:10C9200001207047D80F002010B5084C23682069FB
:10C930001A6822605460012223611A74FFF790FF85
:10C9400001462069BDE81040FBF7EEBBD80F002080
:10C9500008B5FFF7DDFF18B1BDE80840FFF7E4BFF9
:10C9600008BDFFF7E1BF826002210262002201825E
:10C97000C2618261704700008368C168A3F18C02C4
:10C9800043F81C2C026943F84C2C426943F8482CAC
:10C99000094A43F82C2C022203F8182C002243F8F1
:10C9A000201C03F8172C43F8081C43F80C2C43F800
:10C9B000102CA3F1280070474181000810B52023F6
:10C9C00083F31188FFF7D8FF00210446FFF784FFA7
:10C9D000002383F31188204610BD0000024B1B6921
:10C9E00058610F20FFF74CBFD80F0020202383F39E
:10C9F0001188FFF7F3BF08B50146202383F31188A0
:10CA00000820FFF74BFF002383F3118808BD0000C7
:10CA1000054B1B6921B1036058610320FFF73EBF3E
:10CA20004FF0FF30704700BFD80F002003682BB1D4
:10CA30000022026059611846FFF7E0BE70470023EC
:10CA40000060406083607047EFF3098305494A68DE
:10CA500022F001024A60683383F30988002383F3DC
:10CA60001188704730EF00E0202080F3118862B613
:10CA70000B4B0C4AD96821F4E0610904090C0A4304
:10CA80000949DA60CA6842F08072CA6007490A68D8
:10CA900042F001020A601022DA7783F82200704720
:10CAA00000ED00E00003FA05F0ED00E0001000E00A
:10CAB00010B5202383F311880E4B5B6813F40063D9
:10CAC00014D0F1EE103AEFF30984683C4FF0807314
:10CAD000E361094BDB68236684F30988FFF718FFDD
:10CAE00010B1064BA36110BD054BFBE783F3118822
:10CAF000F9E700BF00ED00E030EF00E053810008EF
:10CB00005681000808B500F0DFFB00F075FE00F06C
:10CB10001FF800F064F8FFF7AAFCBDE8084000F039
:10CB200000B801F08DBE4FF08043002258631A61B7
:10CB30000222DA6070474FF080430022DA607047CB
:10CB40004FF08043586370474FF08043586A7047F6
:10CB500001F010B801230370002343600C30FFF78D
:10CB60006EBF10B52023044683F31188416001F0A5
:10CB700011F802232370002383F3118810BD7FB5C1
:10CB80000446202585F311880326067000250A9E99
:10CB900085600296099E0196089E009601F005F9AF
:10CBA000431C14BF02230523237085F3118804B0AE
:10CBB00070BD73B50446202585F3118804260670E0
:10CBC0000025069E8560009601F096F8431C14BF70
:10CBD00002230523237085F3118802B070BD01F094
:10CBE000D5B9012303700023C36183620362C3626A
:10CBF0004362036343608360704738B50446202373
:10CC000083F3118800254160C56005614561856138
:10CC100001F0CCF90223237085F3118838BD70B57B
:10CC20002023064683F31188344601F025FA0025B7
:10CC30000123756004F80C3B1C3654F8043B7BB1AF
:10CC4000586920B16FF001010C30FFF7EFFE54F886
:10CC5000043C986920B16FF001010C30FFF7E6FE4B
:10CC6000B44244F8045CE8D1FFF772FE85F3118802
:10CC700070BD70B500EB810305465069DA600E4661
:10CC8000144618B11422002101F090FEA06918B1D9
:10CC90001422002101F08AFE31462846BDE870408A
:10CCA00001F070BAF8B5836803F00113044683609D
:10CCB00000F1100500F11C06002755F8043B7BB17C
:10CCC000586920B16FF001010C30FFF7AFFE55F845
:10CCD000043C986920B16FF001010C30FFF7A6FE0B
:10CCE000B54245F8047CE8D12046BDE8F84001F0A3
:10CCF000C7BAF0B400EB81044789E4680125A46950
:10CD00008D403D43458123600023A2606360E36062
:10CD1000F0BC01F0DDBAF0B400EB81040789E468EF
:10CD2000012564698D403D43058123600023A26095
:10CD30006360E360F0BC01F061BB0378052B10B5C4
:10CD4000044610D1426DD2F8043843F00103C2F812
:10CD50000438C820FFF74FFE626DD2F8043823F084
:10CD60000103C2F8043810BD2DE9F041022300256B
:10CD700004460370C564856000F10C0600F11C07D1
:10CD80004FF0200856F8043BABB188F3118856F8F1
:10CD9000043C586920B16FF001010C30FFF746FEEA
:10CDA00056F8043C986920B16FF001010C30FFF790
:10CDB0003DFE85F31188BE4246F8045CE2D184F85A
:10CDC0003450204601F07AF963681B6823B120468D
:10CDD0000021BDE8F0411847BDE8F081F8B50378BF
:10CDE00080F850300523037043681B6804460BB17C
:10CDF000042198470026A66004F10C0520271C3466
:10CE000055F8043BABB187F3118855F8043C5869D9
:10CE100020B16FF001010C30FFF708FE55F8043C1B
:10CE2000986920B16FF001010C30FFF7FFFD86F328
:10CE30001188A542E4D1F8BD436890F850201B68E2
:10CE400002700BB1052118477047000090F834308C
:10CE500070B5044613B1002380F8343004F1440265
:10CE6000204601F02CFA63689B68B3B994F844300B
:10CE700013F0600539D00021204601F0C3FC0021E9
:10CE8000204601F0B5FC63681B6813B106212046FB
:10CE90009847062384F8343070BD20469847002810
:10CEA000E4D094F84B2094F84A3043EA0223E26B32
:10CEB0009A4288BFE36394F94430E56B002B4FF04E
:10CEC000200380F20B81002D00F0FA80092284F803
:10CED000342083F311880021E36BA26B2046FFF717
:10CEE0001AFF002383F31188D6E794F8452003F056
:10CEF0007F0343EA022340F20232934200F0CC80E7
:10CF000025D8022B00F0A08009D8002B51D0012B8E
:10CF1000B1D17F4BA3630223E36300234EE0B3F55B
:10CF2000817F00F0A680B3F5407F49D0B3F5807FC4
:10CF3000A1D194F84630012B9DD1B4F84C3023F0A8
:10CF40000203A4F84C30A563E5632564A9E740F229
:10CF5000016293421DD8B3F5C06F3BD2B3F5A06F09
:10CF600089D1B4F84430B3F5A06F0ED194F84630AF
:10CF700084F84E30204601F0F9F863681B6813B15D
:10CF8000012120469847032323700023A363E36312
:10CF900014E0B3F5106F33D040F602429342B8D09C
:10CFA000B3F5006F7FF467AF04F14F03A363012370
:10CFB00024E004F14C02A2630222E263236470E7DE
:10CFC00094F84630012B7FF456AFB4F84C3043F060
:10CFD0000203B6E794F84920616894F848304E6837
:10CFE00094F8471043EA0223204694F84620B047BD
:10CFF00000283FF440AF4368A3630368E363A4E7FA
:10D000002378042B10D1202383F311882046FFF7C7
:10D0100049FE85F31188636884F84F501B6803212B
:10D0200021700BB12046984794F84630002BACD0C5
:10D0300084F84F300423237063681B68002BA4D04E
:10D04000022120469847A0E794F848301D0603F0D7
:10D050000F0120460AD501F025F9012804D0022845
:10D060007FF409AF2B4B55E72B4B53E701F00DF93C
:10D07000F3E794F84630002B7FF4FDAE94F8483087
:10D0800013F00F0181D01A06204602D501F0CEFB25
:10D090007BE701F0C1FB78E794F84630002B7FF482
:10D0A000EAAE94F8483013F00F013FF46EAF1B0660
:10D0B000204602D501F0A6FB67E701F099FB64E783
:10D0C000142284F8342083F311882B462A462946FB
:10D0D0002046FFF70EFE85F31188DDE65DB11522CF
:10D0E00084F8342083F311880021E36BA26B20467F
:10D0F000FFF7FFFDF5E60B2284F8342083F3118857
:10D100002B462A4629462046FFF705FEE3E700BFE7
:10D1100025F0000821F0000823F0000838B590F849
:10D1200034300446152B39D8DFE803F03E38383860
:10D1300038383E38380B29393838383838383838A4
:10D140003E3E90F84B1090F84A20C36B42EA012211
:10D15000934214D2C268128AB3FBF2F502FB153572
:10D160006DB9202383F311882B462A462946FFF701
:10D17000D2FD85F311880A2384F834300EE014239D
:10D1800084F83430202383F3118800231A4619468B
:10D190002046FFF7AEFD002383F3118838BD036CF2
:10D1A00003B198470023E7E7002101F02BFB0021A2
:10D1B000204601F01DFB63681B6813B10621204661
:10D1C00098470623D8E790F83420152A38B5044646
:10D1D00017D80123934040F6416213421ED113F445
:10D1E00080150FD19B020CD50B2380F834302023FF
:10D1F00083F311882B462A462946FFF78CFD85F3D9
:10D20000118838BDC3689B695B68002BF9D1036C3A
:10D2100003B19847002384F83430F2E7002101F08D
:10D22000F1FA0021204601F0E3FA63681B6813B1AC
:10D230000621204698470623EDE700F1604300F001
:10D240001F02400903F5614309018000C9B200F1E2
:10D25000604083F8001300F5614001239340C0F85B
:10D26000803103607047000000F01F034209012174
:10D2700099402032034B43F822100344002283F8E4
:10D280000023704700E100E0062108B50846FFF7DB
:10D29000D4FF06210720FFF7D0FF06210820FFF763
:10D2A000CCFF06210920FFF7C8FF06210A20FFF75F
:10D2B000C4FF06211720FFF7C0FF06212820BDE884
:10D2C0000840FFF7BABF000008B5214B1A6962F0A9
:10D2D0001F021A611A6902F01F021A614FF0FF3033
:10D2E0001A695A69586100215A6959615A691A6A5A
:10D2F00062F080521A621A6A02F080521A621A6A46
:10D300005A6A58625A6A59625A6A1A6C42F08052D2
:10D310001A641A6E42F080521A661A6E0D4A10682C
:10D3200040F480701060186F00F44070B0F5007F1A
:10D330001EBF4FF4803018671967536823F40073D9
:10D34000536000F0DFF9BDE80840FFF79DBF00BF64
:10D350000038024000700040354B4FF080521A6494
:10D36000344A4FF4004111601A6842F001021A6019
:10D370001A689207FCD59A6822F003029A602C4B37
:10D3800019469A6812F00C02FBD1186800F0F900F7
:10D3900018609A601A6842F480321A600B689B0326
:10D3A000FCD54B6F43F001034B67214B5A6F90073D
:10D3B000FCD5214A5A601A6842F080721A601D4AF0
:10D3C00053685904FCD51A4B1A689201FCD51B4AC4
:10D3D0009A600322C3F88C20194B1A68194B9A42A1
:10D3E000194B21D1194A1168194A91421CD14FF4A5
:10D3F00081721A60144A136803F00F03022BFAD1EA
:10D400000B4B9A6842F002029A609A6802F00C0292
:10D41000082AFAD15A6C42F480425A645A6E42F495
:10D4200080425A665B6E704740F20272E1E700BFCD
:10D4300000380240007000401954410700948838B9
:10D44000002004E011640020003C024000ED00E0F8
:10D4500041C20F4108B5074B074A196801F03D0169
:10D46000996053680BB190689847BDE80840FFF792
:10D470001FBB00BF00600240980D002008B5084B9C
:10D480001968890901F03D018A019A60054AD3684B
:10D490000BB110699847BDE80840FFF709BB00BF12
:10D4A00000600240980D002008B5084B1968090C6F
:10D4B00001F03D010A049A60054A53690BB1906975
:10D4C0009847BDE80840FFF7F3BA00BF006002408C
:10D4D000980D002008B5084B1968890D01F03D0131
:10D4E0008A059A60054AD3690BB1106A9847BDE86E
:10D4F0000840FFF7DDBA00BF00600240980D002031
:10D5000008B5074B074A596801F03D01D960536AD5
:10D510000BB1906A9847BDE80840FFF7C9BA00BF51
:10D5200000600240980D002008B5084B5968890931
:10D5300001F03D018A01DA60054AD36A0BB1106B34
:10D540009847BDE80840FFF7B3BA00BF006002404B
:10D55000980D002008B5084B5968090C01F03D01F1
:10D560000A04DA60054A536B0BB1906B9847BDE82B
:10D570000840FFF79DBA00BF00600240980D0020F0
:10D5800008B5084B5968890D01F03D018A05DA603C
:10D59000054AD36B0BB1106C9847BDE80840FFF704
:10D5A00087BA00BF00600240980D002008B5074B05
:10D5B000074A196801F03D019960536C0BB1906CFA
:10D5C0009847BDE80840FFF773BA00BF0064024007
:10D5D000980D002008B5084B1968890901F03D0134
:10D5E0008A019A60054AD36C0BB1106D9847BDE86B
:10D5F0000840FFF75DBA00BF00640240980D0020AC
:10D6000008B5084B1968090C01F03D010A049A603D
:10D61000054A536D0BB1906D9847BDE80840FFF780
:10D6200047BA00BF00640240980D002008B5084BBF
:10D630001968890D01F03D018A059A60054AD36D8C
:10D640000BB1106E9847BDE80840FFF731BA00BF34
:10D6500000640240980D002008B5074B074A59683E
:10D6600001F03D01D960536E0BB1906E9847BDE853
:10D670000840FFF71DBA00BF00640240980D00206B
:10D6800008B5084B5968890901F03D018A01DA6043
:10D69000054AD36E0BB1106F9847BDE80840FFF7FD
:10D6A00007BA00BF00640240980D002008B5084B7F
:10D6B0005968090C01F03D010A04DA60054A536F0C
:10D6C0000BB1906F9847BDE80840FFF7F1B900BF74
:10D6D00000640240980D002008B5084B5968890D78
:10D6E00001F03D018A05DA60054AD36F13B1D2F823
:10D6F00080009847BDE80840FFF7DAB900640240AF
:10D70000980D00200D4A30B500230D4C13600C25F8
:10D71000194605FB03F00059016002EBC300013319
:10D72000102B4160F5D1074A4FF0FF339360D3606F
:10D73000C2F80834C2F80C3430BD00BF980D002088
:10D7400028F00008006002400F28F8B54BD8274E9B
:10D750000124376884403C4245D106EBC00EDFF817
:10D7600094C0CEF804200C25274314F0FF0F376037
:10D7700005FB00C5CEF80830664609D01C4B1F6B70
:10D7800047F400171F631F6D47F400171F651B6DDB
:10D7900014F47F4F09D0164B1C6B44F480041C63B7
:10D7A0001C6D44F480041C651B6D0C234343F3582B
:10D7B0001C6824F01F041C601C6814F00104FBD1D9
:10D7C0000C2707FB00603D2690F809C0476806FA61
:10D7D0000CF63E601C6021245C6112B1C07AFFF738
:10D7E0002CFD2846F8BD0025FBE700BF980D002062
:10D7F0000038024028F0000870472DE9F74FC2F3C7
:10D80000C31302F00308C2F3800EC2F3C10CC2F3CB
:10D8100041170193454600244FF003094FF00F0ACA
:10D82000CB073DD5019B04F00702920003FA02F6F4
:10D830004FF0010B43680BFA04FB23EA0B0343EAA6
:10D840000E0343606300D0F808B009FA03F3DB432A
:10D850000BEA030B4BEA0C0BC0F808B0D0F80CB085
:10D8600003EA0B0B4BEA070B0AFA02F2B8F1020FBC
:10D87000C0F80CB06FEA02021CD1072C95BFD0F89B
:10D8800020B0D0F824B00BEA02020BEA020295BFE6
:10D890003243324302624262026813402B43036008
:10D8A000490819D04FEA4E0E4FEA8C0CBF00AD006C
:10D8B0000134B5E7D0F800B003EA0B032B43072C83
:10D8C000036095BF036A436A1A401A4095BF164326
:10D8D000164306624662E3E703B0BDE8F08F00003E
:10D8E00011F00C0F38B50546446B02D00A48FEF71C
:10D8F00099FE2B6B1A68116821F01F0111601168E5
